:100000000C94AA000C94CB000C94CB000C94CB0065
:100010000C94CB000C94CB000C94CB000C94CB0034
:100020000C94CB000C94CB000C94CB000C94CB0024
:100030000C94CB000C94730C0C94CB000C94CB0060
:100040000C94CB000C94CB000C94CB000C94CB0004
:100050000C94CB000C94CB000C94CB000C94CB00F4
:100060000C94CB000C94CB000C94CB000C94CB00E4
:100070000C94CB000C94CB000C94CB000C94CB00D4
:100080000C94CB000C94CB000C94CB000C94CB00C4
:100090000C945A0D0C943E0D0C94CB000C94CB0098
:1000A0000C94CB000C94CB000C94540E0C94CB000D
:1000B0000C94CB000C94CB000C94CB000C94CB0094
:1000C0000C94CB000C94CB000C94CB000C94CB0084
:1000D0000C94CB000C94CB000C94CB000C94CB0074
:1000E0000C94CB000C94CB000C94CB000C94CB0064
:1000F0000C94CB000C94CB000C94CB000C94CB0054
:100100000C94CB000C94CB000C94CB000C94CB0043
:100110000C94CB000C94CB000C94CB000C94CB0033
:100120000C94CB000C94CB000C94CB000C94CB0023
:100130000C94CB000C944D070C94660E0C94F909AA
:100140000C94C8090C94650E0C9433070C94820E21
:100150000C94F40311241FBECFEFD1E8DEBFCDBF56
:1001600000E00CBF12E0A0E0B2E0E6E5FFE100E055
:100170000BBF02C007900D92AE30B107D9F72CE04B
:10018000AEE0B2E001C01D92A53DB207E1F70E94CA
:10019000C90E0C94A90F0C9400000E94070E0E9437
:1001A00041010E9455020E94690308950E94EB02DA
:1001B0000E94ED030E94AD0108950F931F93CF930A
:1001C000DF93EC0180910E0290910F02009709F4E9
:1001D00045C04E815F8168857985FC01028113816C
:1001E000248135814017510762077307C0F40BC0A3
:1001F00002811381248135814017510762077307FB
:1002000028F0DF010DC0FC01A0E0B0E0041B150BDD
:10021000260B370B02831383248335830AC0DC014A
:10022000401B510B620B730BED91FC9111973097B2
:10023000F9F64A835B836C837D83109741F08D913F
:100240009C91119799838883CD93DC9315C09983F2
:100250008883D0930F02C0930E020EC019821882B9
:100260008E819F81A885B9858A839B83AC83BD835A
:10027000D0930F02C0930E02DF91CF911F910F9187
:10028000089510920F0210920E020895CF93DF93FB
:10029000A0910E02B0910F021097A9F1A817B9070B
:1002A00069F50DC08E179F0711F0DF0127C0109769
:1002B00029F0208131812D933C9309C0DF012D91DC
:1002C0003C91119730930F0220930E02FD01019093
:1002D000F081E02D3097B9F04281538164817581BE
:1002E000EC018A819B81AC81BD81840F951FA61F83
:1002F000B71F82839383A483B58305C0ED91FC91DE
:100300001197309779F6DF91CF910895E0910E0221
:10031000F0910F02309771F0E817F90721F40CC043
:100320008E179F0759F00190F081E02D3097C1F7AB
:1003300080E0089580E0089581E0089581E00895C7
:10034000CF93DF93EC010E948601811103C0CE019F
:100350000E94DD00DF91CF910895CF92DF92EF925E
:10036000FF92CF93DF938091B10C882309F45AC098
:100370008FB7F894C090B10C1092B10C8FBFD12CF4
:10038000E12CF12CCC0CDD1CEE1CFF1CD701C601AE
:10039000880F991FAA1FBB1F880F991FAA1FBB1F79
:1003A000C80ED91EEA1EFB1EC0910E02D0910F028C
:1003B0002097C1F14A815B816C817D81C416D5068D
:1003C000E606F70618F1C41AD50AE60AF70A888184
:1003D000998190930F0280930E028A85813019F4DF
:1003E000CE010E94DD00EB85FC85CE011995C09100
:1003F0000E02D0910F022097A9F04A815B816C8197
:100400007D81C416D506E606F706E8F64A815B81CB
:100410006C817D814C195D096E097F094A835B837C
:100420006C837D83DF91CF91FF90EF90DF90CF9031
:100430000895909110029F70E4E5F1E08081807F43
:10044000892B808380911002882329F080911102EA
:10045000809353010895909111029F71E8E4F1E0B7
:100460008081807E892B8083089593E09093420160
:10047000E1E4F1E090819F719830E1F780934201CF
:10048000E1E4F1E090819F719813FCCF089588E03A
:100490000E9435028FEF80934F01809112028823D2
:1004A00019F086E10E9435020895E9E3F1E08081C8
:1004B00081608083109212021092100281E080937A
:1004C000930288E00E9435028BEE80935601ECE4A3
:1004D000F1E08081806880830895809312020E94F9
:1004E00047020895809311020E9419020895809393
:1004F00010020E9419020895CF93DF931F921F925A
:10050000CDB7DEB79A838983809362018A81809315
:1005100063010F900F90DF91CF910895CF93DF93F8
:100520001F921F92CDB7DEB79A83898380936001B3
:100530008A81809361019A818981890F80936D01FD
:100540000F900F90DF91CF9108958F70E5E4F1E067
:100550009081907F892B8083089588E00E943502E6
:10056000E9E3F1E080818260808382E080939302FE
:100570000895E9E3F1E080818D7F80830E94470246
:1005800081E08093930208951F93CF93DF93D82F38
:10059000192FC62F89E10E9435028FEF80934F01FA
:1005A00082E08C0F80938001CC2359F02D2FED2F0A
:1005B000F12FA1E8B1E081918D938E2F821B8C17D2
:1005C000D0F383E08093930282E080934201DF9135
:1005D000CF911F9108951F93CF93DF9300D01F9267
:1005E0001F92CDB7DEB780919302823009F468C0C4
:1005F00080914F0183FF3FC0A0917B014A2F50E0C3
:100600009A012F5F3F4F80E090E060E0FC01E058EE
:10061000FE4F7081FC01ED5EFD4F70836F5F862F92
:1006200090E08217930794F383E192E09A838983A1
:10063000A250AB83FA01ED5EFD4F80818C838091E7
:1006400047018A558D83CE0101960E948407E1E41B
:10065000F1E080818F718631E1F7EFE4F1E0808194
:1006600088608083ECE4F1E080818F7780838081F3
:100670008068808325C080914F0186FF21C08091D2
:1006800041018F718931B9F410914201129516958B
:10069000177049F0133021F0153021F412E003C037
:1006A00011E001C013E00E94470281E080939302B1
:1006B000812F0E94250BEFE4F1E08081806480832C
:1006C0000F900F900F900F900F90DF91CF911F918F
:1006D000089510928D0C10928E0C10928A0C10922C
:1006E000890C1092B00C1092AF0CEFE8FCE08FEA8E
:1006F0009CE011921192E817F907D9F70E94320A8B
:100700000E9461070E94D4040E9418040E945705A9
:10071000089590938A0C8093890C0E948E0208950C
:1007200090938C0C80938B0C0E947C020895E82F90
:10073000F0E0EE0FFF1FE157F34F718360830895E0
:1007400081E02091AF0C3091B00C232B09F480E0B4
:100750000895EFEAFCE08081918101969183808386
:100760000895EFEAFCE08081918101979183808375
:1007700008950E94AD0208950E94B9020895CF9392
:10078000DF93CDB7DEB729970FB6F894DEBF0FBE63
:10079000CDBF99E0E4E0F2E0DE01119601900D9208
:1007A0009A95E1F7893128F021E092E3891738F42E
:1007B00001C020E0FE01E20FF11D818105C0975EBE
:1007C0002F5F9A3F99F78FEF29960FB6F894DEBF07
:1007D0000FBECDBFDF91CF9108950E94B0070E9458
:1007E000480B0E943E040895E0919402F091950216
:1007F0003097D9F0228133812817390789F405C051
:10080000228133812817390759F4DC01AD57BF4FD6
:100810002C91278713962C91208B22E0248305C0EE
:100820000190F081E02D309759F70E941605089548
:1008300010929502109294020895FC01148217867A
:1008400013821282AFEABCE08D919C9111970196C0
:100850008D939C938091940290919502009739F426
:1008600011821082F0939502E0939402089591838F
:100870008083F0939502E093940208950F931F9361
:10088000CF93DF93E0919402F0919502309709F4B1
:1008900086C0EF018C81882321F0823009F458C092
:1008A00078C00E94DF048C01009721F482E08C83E1
:1008B0008F8775C09B838A8381E08C83F801E95719
:1008C000FF4F84EF93E0918380833197898582FB8A
:1008D000882780F980839985F801838590FB80F9CA
:1008E0008387998593FB992790F990FB82F98387F9
:1008F000EDE8FCE080818F5F8083F8018487809140
:10090000890C90918A0C968785878D819E81908B2A
:10091000878798859F708189807F892B818B9F81B4
:100920009295907F8F70892B818BEF57FF4F4C856D
:1009300050E06A857B85808191810E945F0FF8017C
:1009400091818C85890F8183C8010E945F0A27C02D
:10095000CE17DF0739F488819981909395028093AF
:1009600094020BC080819181C817D90711F0FC0156
:10097000F9CF8881998191838083EFEAFCE08081BF
:100980009181019791838083ED85FE85CE01199534
:1009900006C00990D881C02D209709F07BCFDF9148
:1009A000CF911F910F910895E6E9F2E080EF97E073
:1009B0001082E757FF4FE817F907D1F708958091A4
:1009C0009602882349F0EFE1F3E081E090E09C019A
:1009D0004081411122C002C020E030E069E8629FFE
:1009E000A001639F500D1124CA018A569D4FFC013E
:1009F00011926A95E9F720E1FC012183EF57FF4F3F
:100A000048555D4F51834083EFEAFCE020813181FE
:100A10002F5F3F4F3183208308950196E757FF4FA3
:100A20008A309105A1F680E090E00895FC011082E3
:100A3000EFEAFCE0808191810197918380830895A2
:100A4000009741F0FC01E757FF4F87E0E03FF807D0
:100A500018F012C0E6E9F2E08081882321F00FC08F
:100A6000808181110FC0E757FF4F87E0E03FF80713
:100A7000B8F380E090E0089580E090E008958E2F34
:100A80009F2F08958E2F9F2F0895FC01ED57FF4F44
:100A90001082EDE8FCE020812F5F2083FC01248799
:100AA0002091890C30918A0C368725870895E5EFCF
:100AB000F7E080E090E02FEF3FEFDF0114972D93F8
:100AC0003C93DC01AA0FBB1FAA0FBB1FAA0FBB1FC1
:100AD000A81BB90BA051B84F4C914E7F4C9310827C
:100AE000019637968436910541F70895CF93DF93A9
:100AF000E1EFF7E020E030E070E0408151814817FD
:100B0000590709F5A901440F551F440F551F440FFC
:100B1000551F421B530B4051584FEA0148814695DF
:100B20004170C42F40E0D42FC617D70761F4C90124
:100B3000880F991F880F991F880F991F821B930B8D
:100B40008051984F08C02F5F3F4F379624363105AC
:100B5000A1F680E090E0DF91CF910895A0E0B0E0B1
:100B6000E0EFF7E0808180FD0EC08581882389F069
:100B7000109731F015969C911597891718F003C0BE
:100B8000DF0101C0DF0137968AE0EC3AF80751F740
:100B9000FD0180818D708063808380E88583CF0133
:100BA0000895FC01808180FD05C08FEF9FEF928347
:100BB0008183158208950E947605009721F0FC013B
:100BC0008381948108958FEF9FEF089580EF97E0E0
:100BD0000895EF92FF920F931F93CF93DF93EC0151
:100BE000F62E8A01E22E0E947605FC01009719F488
:100BF0000E94AE05FC01D283C183148303838081EC
:100C0000F0FA81F98F708063808380E88583E682C3
:100C1000DF91CF911F910F91FF90EF9008950E9467
:100C20007605009711F00E94D10508950F931F9348
:100C3000CF93DF93EC0109851A85112334F48D8558
:100C40009E850817190709F042C08D819E81019683
:100C5000F1F160E08D859E850E947605FC0100978C
:100C600039F18F819885019669F441E02091890CD2
:100C700030918A0C8F8598892817390709F040E050
:100C8000242F01C020E0838194810817190739F0CF
:100C9000DE01AD57BF4F9C918681891710F020FF70
:100CA00012C01483038380818F70806380830BC0A4
:100CB0000E94AE05FC018D859E8592838183898586
:100CC0009A8594838383CD57DF4F88818683DF9114
:100CD000CF911F910F910895CF93DF93EC018F85F2
:100CE00098898F3F2FEF9207C1F16B8563FB6627D1
:100CF00060F90E947605FC01009779F1808180FD02
:100D00002CC0CD57DF4F8881811116C080818F7034
:100D10008063808385818F5F85838F3FF1F4E5EF6A
:100D2000F7E081EB9AE0208126952F5F20833796AC
:100D3000E817F907C1F711C09081892F82958F704C
:100D4000815F8F70282F2295207F9F70922B908338
:100D5000811103C0CF010E94D105DF91CF91089589
:100D6000CF93DF93EC018F8598898F3F2FEF920708
:100D700029F48FEF9FEF98878F830EC02B8522FF7A
:100D800003C098878F8308C06B8563FB662760F973
:100D90000E94DB0598878F83DF91CF910895BF92E2
:100DA000CF92DF92EF92FF920F931F93CF93DF9337
:100DB000EC01BB84B3FABB24B0F8EF84F8886B2D48
:100DC000C7010E94DB05019661F0FE01E957FF4F64
:100DD00011821082319782E08083CE010E945F0AE7
:100DE00026C0CD84DE840E94DF048C010097E1F0F0
:100DF0000E944505F80181818A5F8183E957FF4F91
:100E000011821082F801D08AC786EF57FF4F0190F8
:100E1000F081E02D81E08083D282C182F482E3827E
:100E2000B582C8010E945F0ACE010E941605DF91BB
:100E3000CF911F910F91FF90EF90DF90CF90BF90D7
:100E40000895DC011796ED91FC91189719968C91F5
:100E5000863039F46581838194810E940F0681E098
:100E6000089580E00895DC0119962C9119972223AA
:100E700081F01796ED91FC9118972081222319F0AB
:100E8000213021F008C00E94F90A08950E9421072C
:100E9000089580E0089580E00895EEEBFAE028EBF5
:100EA0003BE050E061E04081442319F04150408331
:100EB000562F3596E217F307B1F751110E94A001A2
:100EC0000895EEEBFAE088EB9BE010823596E81788
:100ED000F907D9F784E690E0A0E0B0E08093B20A89
:100EE0009093B30AA093B40AB093B50A1092B60ACD
:100EF0008DE497E09093B80A8093B70A63E377E0B4
:100F000080E00E9497030895CF93DF93EC01E8817E
:100F1000F98181818838F1F480818F7D8134D1F429
:100F20008A818031B8F00E94DF04009799F020E2B6
:100F3000FC0120832A8121832B81ED57FF4F2083E1
:100F40002C81319620834A8150E068817981029614
:100F50000E945F0FDF91CF9108958093B90A0895A1
:100F60002F923F924F925F926F927F928F929F92B9
:100F7000AF92BF92CF92DF92EF92FF920F931F93A7
:100F8000CF93DF93CDB7DEB72C970FB6F894DEBFC3
:100F90000FBECDBF00E010E00F2EF4E27F2EF02D4B
:100FA0000F2EF9E8CF2EFCE0DF2EF02D68942224DE
:100FB00022F80F2EFAEBAF2EFAE0BF2EF02D0F2EF7
:100FC000F4EBEF2EFBE0FF2EF02D312C612C4424AE
:100FD0004394512CB5C1D8018C91823209F4DCC004
:100FE00018F4803241F0ACC1833209F4A2C18432DA
:100FF00009F4A3C1A5C1F80170822385822F8A70EC
:1010000009F09EC185819681019691F4D8011F96C1
:101010008D919C915097F6012081318128173907D5
:1010200019F0019609F08CC1E2E2D801EC9388C175
:10103000D8011F968D919C915097019611F420FD37
:101040007FC1F60120813181D8011D968D919C913F
:101050001E972817390709F473C1C8010E941606A4
:10106000F501432D562D8481882309F44DC0D80104
:101070001D962D913C911E978081918128173907EB
:1010800009F043C01C969C911C974281491B483033
:1010900060F52381822F90E0042E02C095958795FC
:1010A0000A94E2F780FF18C0F6012081318117967B
:1010B0008D919C9118972817390709F041C11B960B
:1010C0006C911B9763FB662760F91F968D919C912D
:1010D00050970E940F0634C1C20102C0880F991FA9
:1010E0004A95E2F7822B838333C19283238130E0D8
:1010F0004195C90102C0880F991F4A95E2F78160A6
:10110000838385E1848324C1AF013596EE15FF0505
:1011100009F0A9CF4115510509F412C1D8011D9656
:101120008D919C911E97FA01918380831C968C91DE
:10113000828321E0238385E184838CEA9AE00E9404
:10114000A00106C1D6012D913C91F80187859089B7
:101150002817390789F0438542FD0CC0C8010E9459
:10116000B10AD6012D913C91F80187859089281705
:10117000390711F0019621F4E2E2D801EC93E0C0C6
:10118000D80117968D919C9118972817390709F067
:10119000D7C0E3E2EC93D4C01092B90AD8015196BB
:1011A0004C91519742954F70E42FF0E0EE0FFF1FE6
:1011B000E157F34F0190F081E02D309709F45FC0C3
:1011C0001D968D919C911E979A8389831F962D91D0
:1011D0003C9150973C832B8351965C9151975F7063
:1011E0005D834E83AF57BF4F4D915C9159874887C0
:1011F000B8016E5F7F4F641B750BD80111964C913F
:101200001197640F6A87AD57BF4F4C914B8711966A
:101210004C914C87D8011B964C91542F537042FF30
:1012200002C060E201C060E0562B43FF02C040E410
:1012300001C040E0452B2F3F3F4F11F4222D01C04C
:1012400020E0422BD80119962D913C911A978217D4
:10125000930711F428E001C020E0242B2F83D8014C
:1012600015968D919C911697019611F480E101C01D
:1012700080E0282B2F83CE010196199501C080E0D4
:10128000F801938590FF80E0D80117962D913C914D
:1012900018972F3F3F4F69F4F60140815181D801E3
:1012A0001F962D913C9150974217530711F493FFCD
:1012B00081E0F801258136812F3F3F4FB9F1D601FA
:1012C0002D913C912F3F3F4F89F1882379F10E9466
:1012D000DF044C01009751F10E944505F401818122
:1012E0008D5F8183E957FF4F11821082D8011B96D1
:1012F0009C911B9796959170F401838590FB81F9E1
:1013000083871D968D919C911E97908B8787EF57B1
:10131000FF4F0190F081E02D10828091B90A828305
:101320001C968C918183C4010E945F0AD8017C9233
:1013300007C0C8010E94CF0603C0C8010E9416055D
:10134000C8010E9420058C01009709F044CE07C017
:10135000F80187819085019609F003CFF3CE2C9692
:101360000FB6F894DEBF0FBECDBFDF91CF911F91B6
:101370000F91FF90EF90DF90CF90BF90AF909F9034
:101380008F907F906F905F904F903F902F90089537
:10139000FF920F931F93CF93DF93EC0110E080E057
:1013A00090E001E00F2EF3E1FF2EF02D13C0FC01C1
:1013B0002081213179F4EC57FF4F20813181215078
:1013C000310931832083232B21F4FC01F082102F7B
:1013D00001C0102F0E942005009749F7112319F032
:1013E000CE010E94A001DF91CF911F910F91FF903C
:1013F0000895EF92FF920F931F93CF93DF93EC0129
:1014000010E080E090E001E00F2EF7E1EF2EF02DEC
:101410006894FF24F4F816C0FC012081263191F471
:10142000EC57FF4F208131812150310931832083D6
:10143000232B39F4FC01E082ED57FF4FF082102F8F
:1014400001C0102F0E942005009731F7112319F0D9
:10145000CE010E94A001DF91CF911F910F91FF90CB
:10146000EF9008951092CF0B1092CE0B82E390E094
:10147000A0E0B0E08093C70B9093C80BA093C90B7A
:10148000B093CA0B1092CB0B89EF99E09093CD0BE0
:101490008093CC0B8AE090E0A0E0B0E08093BA0BA0
:1014A0009093BB0BA093BC0BB093BD0B1092BE0BE3
:1014B00088EC99E09093C00B8093BF0B0895CF9375
:1014C000DF93EC01FC01EA57FF4F208121FF03C0AD
:1014D00082E1888302C082E18883FE01ED57FF4FDD
:1014E000108220FF05C08FEF9FEF9E838D8306C083
:1014F00080918B0C90918C0C9E838D83257021F4B0
:10150000CE010E94B00604C08F85988998878F838A
:101510008091890C90918A0C9A878987EEE8FCE08B
:1015200080818F5F80838C838F819885019671F491
:1015300081E498E89B838A830E94500FCC57DF4F49
:101540008770992701969983888308C081E698E877
:101550009B838A83CC57DF4F19821882DF91CF910A
:1015600008950F931F93CF93DF938C010E94DF04A4
:10157000EC010097C9F182E18883F80181818983B8
:10158000FE01ED57FF4F10820E94500FFE01EC57F5
:10159000FF4F87709927019691838083339611823C
:1015A0001082F801418150E0B8016E5F7F4FCE019B
:1015B00002960E945F0F81E498E89B838A838FEFF5
:1015C0009FEF98878F83F801858196819E838D8315
:1015D0008091890C90918A0C9A878987EEE8FCE0CB
:1015E00080818F5F80838C83DF91CF911F910F91DA
:1015F0000895CF93DF93FC01C781D0858185833027
:10160000C9F410C0FC012081263171F43485298190
:1016100032130AC027E120832A81EA57FF4F208333
:1016200081E009C080E090E00E942005009751F71A
:1016300080E001C080E0DF91CF91089527E1FC01B7
:101640002083ED57FF4F60830895E091CE0BF0911A
:10165000CF0B813051F018F0823019F004C080E0D7
:1016600005C081E203C081E001C080E2DF01AD5727
:10167000BF4F8C9385E180831092CF0B1092CE0BDD
:10168000EFEAFCE080819181019791838083089546
:101690007F928F929F92AF92BF92CF92DF92EF9202
:1016A000FF920F931F93CF93DF93C0E0D0E00F2EF4
:1016B000F4E18F2EF02D0F2EFFEAEF2EFCE0FF2E2F
:1016C000F02D0F2EF7E1BF2EF02D09E81CE00F2EB4
:1016D000F6E17F2EF02D0F2EF5E1CF2ED12CF02D3F
:1016E0000F2EF3E1AF2EF02D0F2EF1E19F2EF02DF6
:1016F00065C088818331C9F018F4823139F05EC049
:10170000853159F1873109F448C058C0FE01EC57C2
:10171000FF4F80819181892B31F0988284EB9BE08F
:101720000E94A0014BC0A88249C08091CE0B90912D
:10173000CF0B892B09F042C0D093CF0BC093CE0BB7
:1017400088826981CE0102960E94C402F7018081DD
:10175000918101969183808331C0FE01ED57FF4F47
:101760008081811118C02D853E85F801808191818D
:101770002817390771F48B8580FF0BC07882FE0132
:10178000EC57FF4FD182C08281EC9BE00E94A00108
:1017900015C0B88213C0B88211C0CE010E946C0679
:1017A000FE01E957FF4F0190F081E02D309721F4C1
:1017B000CE010E94160502C0CE011995CE010E94ED
:1017C0002005EC01009709F094CFDF91CF911F9194
:1017D0000F91FF90EF90DF90CF90BF90AF909F90D0
:1017E0008F907F900895CF93DF93DC01CB01880F1A
:1017F000991FAA1FBB1F880F991FAA1FBB1F880F05
:10180000991FAA1FBB1F880F991FAA1FBB1FBC01CE
:10181000CD01660F771F881F991F28EE33E040E047
:1018200050E00E94E10E211531054105510509F4F2
:1018300057C0BB27A52F942F832F10927000E6EB83
:10184000F0E03081306230831092B0001092B1002D
:101850001092B20030813F71E9F737E037BB309327
:10186000B100C3EBD0E06FEFA0E7B0E0E6EBF0E053
:1018700057E001C020E01092D00B009711F0688370
:101880001BC0222311F0288317C0E6EBF0E0808113
:101890008F71E9F7109270001092B10083B58260E9
:1018A00083BDE6EBF0E080818F71E9F7E6EBF0E0D5
:1018B00080818F7D808314C03C9132603C93308165
:1018C0003F71E9F753BF889513BE4FB7F894309135
:1018D000D00B4FBF332379F2009761F20197CBCF42
:1018E000DF91CF9108951F920F920FB60F9211249E
:1018F0008F9381E08093D00B8F910F900FBE0F904C
:101900001F901895DC01CB01880F991FAA1FBB1FE0
:10191000880F991FAA1FBB1F9C01AD01220F331F07
:10192000441F551F220F331F441F551F60E074E2F0
:1019300084EF90E00E94E10EDA01C9010197A1094C
:10194000B109492F5A2F6B2F77274093CD008093F1
:10195000CC0082E08093C80088E98093C90086E0CB
:101960008093CA008EE29CE09093880C8093870C51
:1019700080E590E09093840C8093830C1092860C09
:101980001092850C1092800C10927F0C1092820C99
:101990001092810C23ED3BE030932D0C20932C0C06
:1019A0009093290C8093280C10922B0C10922A0CE7
:1019B0001092250C1092240C1092270C1092260CD9
:1019C00081E08093D20B1092D10B0895CF93DF93D7
:1019D0002091850C3091860C4091830C5091840CA1
:1019E00024173507F1F0C091870CD091880CA1E83D
:1019F000BCE0ED91FC911197BF016F5F7F4F6D933C
:101A00007C93EC0FFD1F80834617570721F410923B
:101A1000820C1092810C2F5F3F4F3093860C2093E5
:101A2000850CDF91CF9108956FB7F89420912C0C1D
:101A300030912D0CE4E2FCE080819181AC014F5F9C
:101A40005F4F51834083D901A80FB91F8C9140810A
:101A500051812091280C3091290C4217530721F411
:101A60001092250C1092240CEAE2FCE020813181D6
:101A700021503109318320836FBF08951F920F9247
:101A80000FB60F9211240BB60F928F93EF93FF9323
:101A900081E08093D20BE9ECF0E080818F7D808340
:101AA000FF91EF918F910F900BBE0F900FBE0F9093
:101AB0001F9018951F920F920FB60F9211240BB61C
:101AC0000F922F933F934F935F936F938F939F93B7
:101AD000AF93BF93EF93FF938091C8006091CE00C6
:101AE0008C7199F520912A0C30912B0C8091280C47
:101AF0009091290C2817390741F120912C0C309135
:101B00002D0CE6E2FCE080819181AC014F5F5F4FDC
:101B100051834083D901A80FB91F6C932081318173
:101B20008091280C9091290C2817390721F41092E4
:101B3000270C1092260CEAE2FCE08081918101964C
:101B40009183808381E08093D10BFF91EF91BF91CE
:101B5000AF919F918F916F915F914F913F912F9195
:101B60000F900BBE0F900FBE0F901F901895809195
:101B7000850C9091860C009789F12091D20B22233D
:101B800069F16091870C7091880CEFE7FCE040816F
:101B900051819A012F5F3F4F31832083FB01E40F76
:101BA000F51F60814091830C5091840C24173507F8
:101BB00021F41092800C10927F0C01979093860C68
:101BC0008093850C8FB7F8946093CE00E9ECF0E039
:101BD0009081906290831092D20B8FBF3FB7F894A0
:101BE0002091D10B1092D10B80912A0C90912B0C4B
:101BF0003FBF21110E94680E08958091850C90913D
:101C0000860C089580912A0C90912B0C089514BE97
:101C100088E10FB6F89480936000109260000FBEC8
:101C2000E1E6F0E080E88083108278940E941D0E47
:101C3000089590E00E94320E08951092B10C80E158
:101C400097E29093A9008093A800E1EAF0E088E091
:101C50008083808182608083E2E7F0E0808182601F
:101C6000808308952091A4003091A500820F931FD6
:101C7000EAEAF0E091838083208131818091A8009D
:101C80009091A9008217930750F48081918120914F
:101C9000A8003091A900821B930B9183808384E07C
:101CA00089BBCA9BFECF08951F920F920FB60F9269
:101CB00011248F938091B10C8F5F8093B10C8F9121
:101CC0000F900FBE0F901F901895089581E0089512
:101CD00008958AEF90E0A0E0B0E08093B80C909374
:101CE000B90CA093BA0CB093BB0C1092BC0C82E858
:101CF0009EE09093BE0C8093BD0C82EB9CE00E9412
:101D0000A00108950E94A003811129C0EFEBFCE01F
:101D100086E080838BEB8093C00C8093C10C809312
:101D2000C20C8093C30C8CE998E39093CA0C809307
:101D3000C90C81E08093CB0C8093CC0C85E0809320
:101D4000D00CF093CF0CE093CE0C85E69EE0909300
:101D5000D20C8093D10C84EC9CE00E941D040E9464
:101D6000690E089580E090E00E94890383E799E17D
:101D70000E94900386E10E94720280E00E94A50208
:101D800081E00E946D0266E67EE081E00E9497039A
:101D900008950E94CD0060E076E980E090E00E9426
:101DA000820C569A5E9A9A9AA29A6A9A729A5E9A45
:101DB0000E94B20E0E94690E0E94D6000E94B70DCA
:101DC000FBCFA1E21A2EAA1BBB1BFD010DC0AA1F4F
:101DD000BB1FEE1FFF1FA217B307E407F50720F094
:101DE000A21BB30BE40BF50B661F771F881F991F0F
:101DF0001A9469F760957095809590959B01AC0158
:101E0000BD01CF0108958F929F92AF92BF92CF9262
:101E1000DF92EF92FF92CF93DF93EC01688179819B
:101E20008A819B81611571058105910521F464E228
:101E300079ED8BE597E02DE133EF41E050E00E9432
:101E4000680F49015A019B01AC01A7EAB1E40E9465
:101E5000870F6B017C01ACEEB4EFA50194010E94E9
:101E6000950FC60ED71EE81EF91EF7FE06C081E0CC
:101E7000C81AD108E10880E8F80AC882D982EA8243
:101E8000FB82C6019F77DF91CF91FF90EF90DF90AB
:101E9000CF90BF90AF909F908F9008950C94030FB8
:101EA00080E092E00C94030FA0E0B0E08093000289
:101EB00090930102A0930202B09303020895FB01E4
:101EC000DC0102C001900D9241505040D8F70895B6
:101ED000052E97FB1EF400940E947F0F57FD07D03C
:101EE0000E94E10E07FC03D04EF40C947F0F509536
:101EF0004095309521953F4F4F4F5F4F08959095F6
:101F00008095709561957F4F8F4F9F4F08950E94E8
:101F10009A0FA59F900DB49F900DA49F800D911DC9
:101F200011240895B7FF0C94870F0E94870F821B1E
:101F3000930B0895A29FB001B39FC001A39F700DA2
:101F4000811D1124911DB29F700D811D1124911DC1
:061F50000895F894FFCF94
:0E1F56000100000003081A4080BEE6F7FC0000
:00000001FF
